:020000040800F2
:10000000F8A0002045010008EB110008EB100008E3
:10001000E9110008DD010008B91F00080000000018
:10002000000000000000000000000000251D000886
:10003000F9010008000000006D1C0008271D0008E1
:100040005F0100085F0100085F0100085F01000810
:100050005F0100085F0100085F0100085F01000800
:100060005F0100085F0100085F0100085F010008F0
:100070005F0100085F0100085F0100085F010008E0
:100080005F0100085F0100085F0100085F010008D0
:100090005F0100085F0100085F0100085F010008C0
:1000A0005F0100085F0100085F0100085F010008B0
:1000B0005F0100085F0100085F0100085F010008A0
:1000C0005F0100085F0100085F0100085F01000890
:1000D0005F0100085F0100085F0100085F01000880
:1000E0005F0100085F0100085F0100085F01000870
:1000F0005F0100085F0100085F0100085F01000860
:100100005F0100085F0100085F0100085F0100084F
:100110005F0100085F0100085F0100085F0100083F
:100120005F0100085F0100085F0100085F0100082F
:10013000DFF80CD000F040F8004800471D2200080E
:10014000F8A000200648804706480047FEE7FEE783
:10015000FEE7FEE7FEE7FEE7FEE7FEE7FEE7FEE777
:100160009D1D000831010008D2B201E000F8012B0A
:10017000491EFBD270470022F6E710B513460A4627
:1001800004461946FFF7F0FF204610BD30B50B4678
:10019000014600202022012409E021FA02F59D42B7
:1001A00005D303FA02F5491B04FA02F52844151E8B
:1001B000A2F10102F1DC30BD064C074D06E0E0681B
:1001C00040F0010394E8070098471034AC42F6D39E
:1001D000FFF7B2FF1473000834730008FEE7000055
:1001E00001B54FF47A7301226946024800F0EAFD36
:1001F00008BD00005C00002070472DE9F04161203F
:1002000000F0BEF8002000F0D5F8802000F0D2F811
:10021000012000F0CFF8282000F0CCF810264FF491
:100220009475304600F0ACF800270024FF2000F061
:10023000C1F8641CA4B2B442F8D37F1CBFB2AF4271
:10024000F3D3102000F09CF800270024FF2000F0DA
:10025000B1F8641CA4B2B442F8D37F1CBFB2AF4261
:10026000F3D3BDE8F08100002DE9F0478146102668
:100270008A464FF49478304600F082F80024002536
:1002800004FB06F709EB0500385C00F093F86D1CE1
:10029000ADB2B542F6D3641CA4B24445EFD392206C
:1002A00000F06EF8132000F06BF80024002504FB2A
:1002B00006F700BF0AEB0500385C00F07BF86D1C08
:1002C000ADB2B542F6D3641CA4B24445EED392203D
:1002D00000F056F8122000F053F8BDE8F04700F0A7
:1002E00091B8000010B5254C01220221204600F0F3
:1002F000C6F9C82000F0B8F800220221204600F01C
:10030000BEF9C82000F0B0F801220221204600F01A
:10031000B6F9C82000F0A8F8062000F031F8172040
:1003200000F048F8172000F045F8172000F042F8D8
:10033000042000F025F800F065F8002000F020F817
:100340008F2000F037F8502000F01AF8772000F0E6
:1003500031F8612000F014F8802000F02BF8012023
:1003600000F028F8282000F025F8822000F008F896
:100370000A2000F01FF8002010BD00000008014016
:1003800070B50B4C054600220421204600F077F999
:1003900000221021204600F072F92846FFF720FFC6
:1003A0002046BDE870400122102100F068B900002D
:1003B0000008014070B50B4C05460122042120467F
:1003C00000F05DF900221021204600F058F928467F
:1003D000FFF706FF2046BDE870400122102100F023
:1003E0004EB900000008014010B50220FFF7C8FF19
:1003F00000F008F80720FFF7C3FFBDE81040A52074
:10040000FFF7D8BF10B509A001F0D8FD0D4C02E0F0
:10041000642000F029F80821204600F02BF900287C
:10042000F6D0BDE8104008A001F0C8BD4465627573
:10043000673A20652D506170657220627573790D81
:100440000A0000000008014044656275673A2065B3
:100450002D506170657220627573792072656C65CC
:100460006173650D0A00000070B5044600F00CF9D8
:100470000546601C02D004480078044400F004F9EA
:10048000401BA042FAD370BD280000202DE9F84F90
:10049000DFF8B8A100220AF1040B144601274FF03F
:1004A0000F090BF1040E00BF0B6807FA04F52B408F
:1004B000AB4274D1DFF898C14E68A6EB0C086645D4
:1004C0002BD00DDC032E34D005DC36B3012E19D031
:1004D000022E2FD11BE0112E16D0122E2AD119E098
:1004E000B8F5881F19D006DCB8F5803F15D0B8F5EF
:1004F000801F1FD111E0B8F5001F0ED0B8F5041F02
:1005000018D10AE0CA6815E0CA68121D12E0CA686C
:1005100008320FE0CA680C320CE08A682AB1012A5E
:100520004FF0080203D0456104E0042202E00561B7
:1005300000E00022FF2B01D8064601E000F104068E
:100540004FEA840501D9A5F12005D6F800C009FAC3
:1005500005F82CEA080C02FA05F54CEA050CC6F879
:1005600000C04D68ED006AD53A4DAE6946F001060F
:10057000AE61AD6924F0030605F001050095364D26
:1005800006EB050CDCF80850A6074FEA167809FAC6
:1005900008F6B543314EB04202D100261AE04EE0D3
:1005A0002F4EB04201D1012614E02E4EB04201D1AF
:1005B00002260FE02C4EB04201D103260AE02B4E5A
:1005C000B04201D1042605E0294EB04201D10526F2
:1005D00000E0062606FA08F62E43CCF808604D68BF
:1005E000DAF80060ED03554601D51E4300E09E4356
:1005F0002E604D68AD0305D5DBF800601E43CBF8D7
:10060000006004E0DBF800509D43CBF800504D68DB
:10061000DEF80060ED02754601D51E4300E09E4302
:100620002E604D68AD0205D5084D0C352E681E4371
:100630002E6004E0054E0C3635689D433560641C21
:10064000102CFFF431AFBDE8F88F0000000401402A
:10065000000011100010024000000140000801409D
:10066000000C01400010014000140140001801403E
:10067000001C01408068084000D0012070470AB18A
:10068000016170470904FBE701488068704700007A
:100690002800002002488168027811448160704778
:1006A00028000020074810B5016841F010010160E2
:1006B000032000F089F8002000F006F800F024F88C
:1006C000002010BD0020024070B50D4D04464FF4CF
:1006D0007A712878B1FBF0F00A490968B1FBF0F0B3
:1006E00000F031FC48B9102C07D200222146501EE0
:1006F00000F04AF800206C6070BD012070BD000061
:1007000028000020340000201D4808B5816941F010
:1007100001018161806900F001000090032000F078
:1007200053F8002211466FF00B0000F02DF8002264
:1007300011466FF00A0000F027F8002211466FF012
:10074000090000F021F800221146501F00F01CF8AB
:1007500000221146101F00F017F800221146901ECB
:1007600000F012F800221146501E00F00DF8054866
:10077000416821F0E06141F00071416008BD000076
:100780000010024000000140F0B40E4B1B680C4604
:10079000C3F30223C3F10705042D00D90425191D55
:1007A000072901D2002300E0DB1E012606FA05F12D
:1007B000491E214099409E40761E16403143F0BCB0
:1007C00000F014BD0CED00E0064900F007020868D7
:1007D0004FF6FF03184040EA0220034A1043086026
:1007E000704700000CED00E00000FA052DE9F0472D
:1007F000DFF83C8105460E46D8F8000000F00700FF
:10080000B0420CD2D8F8001021F007013143C8F8EB
:100810000010D8F8000000F00700B04263D128783B
:10082000444C800705D56068A96820F0F0000843B3
:1008300060602878C00745D06868012816D0216814
:10084000022816D0890700294DDA616821F00301DA
:1008500001436160FFF718FF6968074641F288307D
:1008600001290FD00229814619D027E02168890388
:10087000E9E78901E7E700BFFFF706FFC11B49452C
:1008800001D918E081466068C0F381000128F3D1E6
:1008900018E000BFFFF7F8FEC11B49450BD86068A0
:1008A000C0F381000228F5D10CE000BFFFF7ECFE99
:1008B000C11B494502D90320BDE8F087606810F0EC
:1008C0000C0FF3D1D8F80010404601F00701B142F7
:1008D0000BD9016821F0070131430160006800F085
:1008E0000700B04201D00120E6E72878400705D58F
:1008F0006068E96820F4E0600843606028780007D9
:1009000006D56068296920F4605040EAC100606043
:1009100000F03CF86168084AC1F30311515CC8401B
:10092000064908600020FFF7CFFE0020C4E7000062
:1009300000200240001002407472000834000020C1
:100940000148006870470000340000200448054951
:1009500000684968044AC1F30221515CC8407047ED
:100960003400002000100240847200080448054949
:1009700000684968044AC1F3C221515CC84070470D
:1009800034000020001002408472000812A185B0DB
:100990000FC98DE80F0014A0144A00680490516834
:1009A000134801F00C03042B10D0082B0ED1C1F317
:1009B0008343C9031DF803000AD5516804AAC1F393
:1009C0004041515C0A4A5043B0FBF1F005B070471A
:1009D00008494843FAE7000002030405060708092E
:1009E0000A0B0C0D0E0F1010010200000010024047
:1009F00000127A0000093D002DE9F84F0446007806
:100A0000B94DC00748D06868C0F38100012807D0FD
:100A10006868C0F38100022809D16868C00306D560
:100A20002868800338D5606800286FD034E060689B
:100A3000B0F5803F0BD010B1B0F5A02F11D02868D1
:100A400020F480302860286820F4802002E02868A4
:100A500040F480302860606888B1FFF715FE0646D4
:100A600009E0286840F480202860F0E7FFF70CFEDA
:100A7000801B642875D828688003F7D50CE0FFF741
:100A800003FE064605E000BFFFF7FEFD801B64285D
:100A9000F0D828688003F7D42078944E80074FF070
:100AA00001094FF000083BD5686810F00C0F07D023
:100AB0006868C0F38100022809D16868C00306D4C1
:100AC0002868800714D5206901281FD110E020690B
:100AD000B0B1C6F80090FFF7D7FD074605E000BFAC
:100AE000FFF7D2FDC01B0228C4D828688007F7D5BD
:100AF0002868616920F0F80040EAC10028600FE032
:100B0000C6F80080FFF7C0FD074606E0E9E000BF39
:100B1000FFF7BAFDC01B022823D828688007F7D446
:100B2000207800072CD57248A169D9B1C0F800908F
:100B3000FFF7AAFD074604E0FFF7A6FDC01B022849
:100B40000FD8686A8007F7D56A484FF4FA510068F1
:100B5000B0FBF1F0009000BF0098411E0091FAD266
:100B60000EE080E0C0F80080FFF78EFD074604E04D
:100B7000FFF78AFDC01B022875D8686A8007F7D482
:100B80002078400760D5E8690027C00008D4E869EC
:100B900040F08050E861E869012700F08050009043
:100BA00055480168C90513D40168834641F4807132
:100BB0000160FFF769FD824606E000BFFFF764FDB4
:100BC000A0EB0A0064284ED8DBF80000C005F5D57C
:100BD000E06801280AD008B1052813D0286A20F05F
:100BE00001002862286A20F0040002E0286A40F030
:100BF00001002862E06841F2883B98B1FFF744FDAC
:100C000082460BE0286A40F004002862EEE700BF4D
:100C1000FFF73AFDA0EB0A0159455AD8286A800728
:100C2000F6D50CE0FFF730FD824605E0FFF72CFD1E
:100C3000A0EB0A0159454CD8286A8007F6D41FB1A9
:100C4000E86920F08050E861E06988B36968C1F321
:100C50008101022945D00228C6F8608004D0FFF740
:100C600013FD044638E034E0FFF70EFD074604E0CC
:100C7000FFF70AFDC01B02282BD828688001F7D493
:100C8000206AB0F5803F05D16868A16820F4003083
:100C900008436860D4E908010843696821F47411C5
:100CA00008436860C6F86090FFF7EEFC044606E073
:100CB00015E000BFFFF7E8FC001B022809D82868F0
:100CC0008001F7D50BE000BFFFF7DEFC001B022818
:100CD00002D90320BDE8F88F28688001F4D40020F1
:100CE000F8E70120F6E70000001002400000424251
:100CF00080044242340000200070004070B50400BF
:100D000005D00025A56294F8510010B104E001203F
:100D100070BD204600F034F8022084F851002068AD
:100D2000016821F040010160D4E901010843D4E9E0
:100D300003121143084361690843218B01F40071D8
:100D40000843E1690843216A0843A16A084321680E
:100D50000860A069042101EA1040616A0843216823
:100D600048602168E06A08612068C16921F4006177
:100D7000C1616565012084F85100002070BD00004C
:100D800000B500680C4985B0884212D10B488169D2
:100D900041F4805181618069694600F4805004907B
:100DA000A020009002200190032003900448FFF748
:100DB0006DFB05B000BD0000003001400010024096
:100DC000000801402DE9F84F044690F85000002635
:100DD000994617460D4601280DD04FF0010B84F8B7
:100DE00050B0FFF751FC804694F85100B2460128FC
:100DF00004D0022694E00220BDE8F88F002D7BD0BD
:100E0000002F79D0032084F85100C4F854A0256342
:100E1000A786E786C4F838A0A4F83CA0A4F83EA0B2
:100E2000C4F844A0C4F840A0A068B0F5004F04D1B5
:100E30002068016841F4804101602068016849062A
:100E400003D4016841F040010160E068B0F5006F33
:100E5000606804D030B3E08E012823D03EE010B1AA
:100E6000E08E01281AD135F8021B206805E02068C1
:100E70008168890706D535F8021BC160E08E401EE7
:100E8000E0860BE0B9F1000F34D0B9F1FF3F05D097
:100E9000FFF7FAFBA0EB080149452BD2E08E0028B2
:100EA000E5D11EE0216815F8010B087306E0206803
:100EB0008168890706D515F8011B0173E08E401E75
:100EC000E0860BE0B9F1000F14D0B9F1FF3F05D077
:100ED000FFF7DAFBA0EB080149450BD2E08E0028B2
:100EE000E5D14B46012202212046CDF8008000F0DA
:100EF000CEFE10B1032613E011E0424649462046DB
:100F000000F0B5FE18B101262020606508E0A06859
:100F100018B92068C16880680090606D00B1012632
:100F200084F851B084F850A0304665E74FF0E021D6
:100F30000428086903D020F004000861704740F0DD
:100F40000400FAE7704710B5401EB0F1807F01D36E
:100F5000012010BD4FF0E02460610F21601700F008
:100F600045F90020A06107202061002010BD10B5C8
:100F7000FFF7E8FF10BD70B5040004D094F8390005
:100F8000002510B106E0012070BD84F838502046DD
:100F900000F022F8242084F839002068C16821F488
:100FA0000051C160204600F01DFF2068016921F456
:100FB000904101612068416921F02A014161206866
:100FC000C16841F40051C160E563202084F8390014
:100FD00084F83A00002070BD10B50068114986B051
:100FE00088421DD11048816941F480418161806946
:100FF0000E4C00F4804004904FF4007000900220EA
:1010000001900320039069462046FFF73FFA002134
:101010002015CDE90001029169462046FFF736FA16
:1010200006B010BD00380140001002400008014029
:101030002DE9F843044690F839001F4616460D4640
:10104000202850D1A5B19EB194F8380001284AD08B
:10105000012084F838004FF00008C4F83C802120BB
:1010600084F83900FFF710FBA6848146E68426E069
:101070000120BDE8F883E08C401EE084A0684B4668
:10108000B0F5805F4FF000024FF0800120460097DE
:1010900003D000F05FFFE8B90DE000F05BFFC8B9D6
:1010A00028882168C0F308004860206908B16D1CD9
:1010B00005E0AD1C03E0216815F8010B4860E08CE9
:1010C0000028D8D14B46002240212046009700F04E
:1010D00041FF08B10320CCE7202084F8390084F8D0
:1010E00038800020C5E70220C3E7FEE7124810B5AC
:1010F000816986B041F00401816180690F4C00F084
:1011000004000490002216212046FFF7B8FA1620AA
:101110000090012001900220039069462046FFF7CD
:10112000B5F900210820CDE9000102916946204669
:10113000FFF7ACF906B010BD0010024000080140F6
:10114000114810B50F4901604FF4827141600021D0
:101150008160C1604FF400720161C0E9051228226C
:10116000C0E90721416281620A21C162FFF7C6FD21
:10117000002805D0BDE81040272104A000F01DBFC5
:1011800010BD0000003001405C0000202E2E2F53C7
:1011900072632F7370692E63000000000D4810B554
:1011A0000B4901604FF4E1314160002181600C2264
:1011B000C160C0E904128161C161FFF7DCFE002853
:1011C00005D0BDE81040242103A000F0F6BE10BDFC
:1011D00000380140B40000202E2E2F5372632F756B
:1011E000736172742E630000FEE770470907090EF1
:1011F000002806DA00F00F0000F1E02080F8141D4E
:10120000704700F1E02080F80014704730B50021ED
:101210000A4AC3B20DE0002006E000BF01FB04044F
:101220001568401C80B22B55548A8442F6D8491C5C
:1012300089B2908A8842EED830BD00004400002078
:101240002DE9F05F81462A481E46DDF828B08388E4
:1012500088464B4502D3C188414504D2BDE8F05FC2
:1012600024A000F0ABBEB088410700D0012101EB03
:10127000D000203AF1885043484331684FF0800A4B
:101280000F1800252FE0002424E000BFBBF1FF0F62
:101290003A7804F007012AFA01F002EA000201D0CC
:1012A0000AB908E082B108EB050081B209EB04003D
:1012B00080B20B9A06E008EB050081B209EB04004E
:1012C00080B25A4600F06AFCE043400700D17F1C20
:1012D000641CA4B2B088A042D8D83079400700D0AE
:1012E0007F1C6D1CADB2F088A842CCD8BDE8F09F41
:1012F0004400002044656275673A205061696E744D
:101300005F447261774368617220496E7075742022
:101310006578636565647320746865206E6F726DAF
:10132000616C20646973706C61792072616E6765AD
:101330000D0A00002DE9FF4F8046834885B00F4617
:1013400084881299444502D3C088B84205D809B0B0
:101350007E48BDE8F04F00F031BE03200024A0EB32
:10136000420015B20FFA80FA01297AD0E9E0264648
:1013700061E000BF4FF0010908EB040007EB060B2A
:1013800002901FFA8BF1CDF8009080B24B46089A7C
:1013900000F0CEF9A8EB040004901FFA8BF1CDF811
:1013A000009080B20123089A00F0C2F93819CDE903
:1013B000009081B2A8EB060B1FFA8BF00123089A6C
:1013C00000F0B6F9381B039081B2CDF800901FFAF7
:1013D0008BF00123089A00F0ABF90498A7EB060BF9
:1013E0001FFA8BF1CDF8009080B20123089A00F02B
:1013F0009FF902981FFA8BF1CDF8009080B201237B
:10140000089A00F095F9039808EB060B81B2CDF825
:1014100000901FFA8BF00123089A00F089F90198D7
:10142000CDF8009081B21FFA8BF00123089A00F0EA
:101430007FF9761C36B2AE429CDDBAF1000F06DAB7
:101440000AEB8400801D0FFA80FA08E009E0611BB6
:101450000AEB81000A306D1E0FFA80FA2DB2641C6F
:1014600024B2AC4283DD09B0BDE8F08F08EB040084
:10147000012607EB050902901FFA89F1009680B258
:10148000139B089A00F054F9A8EB040003901FFA8C
:1014900089F1009680B2139B089A00F049F9381937
:1014A000CDE9006081B2A8EB05091FFA89F0139B12
:1014B000089A00F03DF9A7EB040B1FFA8BF11FFA15
:1014C00089F00096139B089A00F032F90398A7EB75
:1014D00005091FFA89F1009680B2139B089A00F063
:1014E00027F902981FFA89F1009680B2139B089A97
:1014F00000F01EF908EB05091FFA8BF11FFA89F0BD
:101500000096139B089A00F013F90198009681B297
:101510001FFA89F0139B089A00F00AF9BAF1000F3C
:1015200005DA0AEB8400801D0FFA80FA07E0611BE0
:101530000AEB81000A306D1E0FFA80FA2DB2641C8E
:1015400024B2AC4292DD8EE744000020D072000845
:101550002DE9FE4F1D46304B16469A88824206D32F
:10156000DB888B4203D3B24201D3AB4204D2BDE845
:10157000FE4F2AA000F022BD83468A46321A00D5CB
:10158000821B91466A1A002A00DD4A1B90464FF0E2
:10159000FF32B34501D2012000E010460290AA4577
:1015A00000D2012209EB0804002701927F1C0D984C
:1015B000FFB2012805D10320B7FBF0F100FB117049
:1015C000F0B101200090514658460E9B0C9A00F055
:1015D000AFF800BFB8EB440F06DCB3451AD0029851
:1015E000444458441FFA80FBB9EB440FDEDBAA45A4
:1015F00010D001994C440AEB01001FFA80FAD5E79C
:1016000001200090FF22514658460E9B00F090F8B2
:101610000027DFE7BDE8FE8F4400002044656275C7
:10162000673A205061696E745F447261774C696EED
:101630006520496E707574206578636565647320F4
:10164000746865206E6F726D616C20646973706C74
:1016500061792072616E67650D0A00002DE9FF4F08
:10166000ADF5037D8846DDE990BA814600244FF44C
:10167000807715462646394642A8FEF77CFD394656
:1016800002A8FEF778FD194842AA83884B4503D388
:10169000C38802A8434512D215A000F08FFC0DF5B7
:1016A000077DBDE8F08F00BF95FBF1F301FB1353FD
:1016B00095FBF1F530330355641C24B200E00A2198
:1016C000002DF1D11146002C08DD031913F8013C5F
:1016D0008B55761C641E36B224B2F4E7CDE900BA0D
:1016E00041464846869B00F0CBF9D8E744000020ED
:1016F00044656275673A205061696E745F4469732E
:101700004E756D20496E70757420657863656564EB
:101710007320746865206E6F726D616C20646973EC
:10172000706C61792072616E67650D0A00000000BF
:101730002DE9F05F814626481C46884683880A9931
:1017400093464B4502D3C288424504D2BDE8F05FC0
:1017500020A000F033BC012901D0002634E0002590
:10176000681E00EB440718E009EB05000026A0EB1B
:10177000040A0EE0BAF1000F0DD408EB0600001BBE
:1017800009D481B21FFA8AF05A4600F007FA761C93
:1017900036B2B742EEDC6D1C2DB2AF42E4DCBDE8E0
:1017A000F09F002509EB06077F1E09E008EB050006
:1017B000401E81B2B8B25A4600F0F0F96D1C2DB24D
:1017C000A542F3DB761C36B2A642EADBE7E700006F
:1017D0004400002044656275673A205061696E7468
:1017E0005F44726177506F696E7420496E707574D2
:1017F000206578636565647320746865206E6F7218
:101800006D616C20646973706C61792072616E67C0
:10181000650D0A002DE9FE4F8246274891460C4689
:10182000DDE90D2581880C9E1F46514506D3C088F1
:10183000A04203D3494501D3B84204D2BDE8FE4FCC
:101840001EA000F0BBBB002080465AB90EE00096F7
:10185000CDE9018523464A4619465046FFF778FEF2
:10186000641CA4B2BC42F2D3BDE8FE8F0096CDE961
:10187000018523464A4619465046FFF769FE009601
:10188000CDE9018552463B4621461046FFF760FEF2
:101890000096CDE901854A46234639461046FFF7B2
:1018A00057FE0096CDE901853B465246194648460B
:1018B000FFF74EFED8E70000440000204465627543
:1018C000673A20496E707574206578636565647346
:1018D00020746865206E6F726D616C20646973702E
:1018E0006C61792072616E67650D0A002DE9F05F09
:1018F0001D46904606468A46DDF828B0B6E07F29A8
:101900004FF0000054D8AA884CE053232C6843437E
:1019100014F813308B4244D153214843022101EB88
:10192000400004EB0009002737E000242CE000BF52
:101930004FEAE47004EB507020F00700A4EB0002C3
:10194000BBF1FF0F99F800104FF0800020FA02F071
:1019500001EA000101D009B907E071B10AEB070003
:1019600081B2301980B20B9A05E00AEB070081B210
:10197000301980B25A4600F011F94048204007283B
:1019800001D109F10109641C2889A042D0DC287A20
:10199000400701D009F101097F1C6889B842C4DC05
:1019A00002E0401C8242B0DC08F10108E8885CE0FB
:1019B0000127AB8854E053222C68424314F812C02C
:1019C0008C454CD107EB4202A45C98F8012094426C
:1019D00045D1532250430222296802EB400001EB1B
:1019E0000009002737E000242CE000BF4FEAE47034
:1019F00004EB507020F00700A4EB0002BBF1FF0FD6
:101A000099F800104FF0800020FA02F001EA00017E
:101A100001D009B907E071B10AEB070081B23019B2
:101A200080B20B9A05E00AEB070081B2301980B250
:101A30005A4600F0B3F811482040072801D109F1B7
:101A40000109641C2889A042D0DC287A400701D013
:101A500009F101097F1C6889B842C4DC02E0401C1E
:101A60008342A8DC288908F10208064498F800108F
:101A700000297FF444AFBDE8F09F0000070000801C
:101A80002DE9FC5F80461B4889460D468188444607
:101A9000DDF834B01E461746A14203D3C188824602
:101AA000A94222D2BDE8FC5F134800F087BAB08893
:101AB000BAF804300119994203D9F18844462944FF
:101AC0008DB2F188BAF806002944814201D9444612
:101AD0004D460C99CDE9001B334629462046FFF7B9
:101AE000AFFBB0887F1C204484B23A78002ADED154
:101AF000BDE8FC9F440000208C7200082DE9F041F5
:101B0000134C0E460699206026816281A1811F46F2
:101B100015464FF0000870074FEAD60100D0491C67
:101B20006182A5822A460BA000F048FA0F2112A07C
:101B300000F044FAE781A4F810802FB1B42F03D04D
:101B4000A580E680BDE8F081A680E580FAE7000088
:101B500044000020576964746842797465203D2010
:101B600025642C2048656967687442797465203D56
:101B70002025640D0A000000204550445F57494469
:101B80005448202F2038203D2025640D0A000000F5
:101B9000014908607047000044000020F0B4284C60
:101BA000A388834234D3E3888B4231D32346E78929
:101BB0001E895D89CFB15A2F1AD0B42F1CD0B7F52A
:101BC000877F38D10B46281A401E80B2218AD9B1AE
:101BD000012916D0022904D003292CD1F11A491E5B
:101BE0008BB2281A401E80B20EE003460846EDE78D
:101BF000711A491E8BB2E9E7301A401E83B2681A87
:101C0000E2E7F11A491E8BB29E4201D3854203D20C
:101C1000F0BC0CA000F0D2B9618A414301EBD305BE
:101C200021688020002A4C5D03F0070220FA02F0B0
:101C300003D020434855F0BC704784434C55FAE725
:101C40004400002044656275673A20457863656505
:101C500064696E6720646973706C617920626F7566
:101C60006E6461726965730D0A000000704738B5D3
:101C70000B46009204460022802100F008F800285C
:101C800004D0606D40F020006065032038BD2DE970
:101C9000F0411D4617460E460446DDF8188035E033
:101CA000681C33D02DB1FEF7EFFCA0EB0800A84272
:101CB0002CD32068416821F0E00141606068B0F5F4
:101CC000827F0BD1A068B0F5004F02D0B0F5806FD5
:101CD00004D12068016821F040010160A06AB0F5DC
:101CE000005F0AD1206801684DF6FF721140016063
:101CF0002068016841F400510160012084F851001E
:101D0000002084F850000320BDE8F081206880683E
:101D100036EA000004D00020B842C1D10020F3E729
:101D20000120F9E7704710B5FEF7B4FCBDE810409C
:101D3000FFF71DB930B58FB001210804CDE90010BF
:101D40000024029402250491CDE907504FF4E010DD
:101D500009906846FEF750FE00B1FEE70F20CDE97E
:101D60000A054FF48060CDE90C4002210AA80E94C8
:101D7000FEF73CFD00B1FEE7FEF7E2FD4FF47A719D
:101D8000B0FBF1F0FFF7DFF80420FFF7CFF80022F7
:101D90001146501EFEF7F8FC0FB030BD0D4801682B
:101DA00041F00101016041680B4A11404160016846
:101DB0000A4A11400160016821F4802101604168F4
:101DC00021F4FE0141604FF41F0181600449C0030A
:101DD00008607047001002400000FFF8FFFFF6FEA9
:101DE00008ED00E02DE9F041044600680169E26871
:101DF00021F44051114301612169A06808436169E0
:101E000008432168CA6841F20C639A430243CA60DE
:101E100020684169A26921F44071114341614C4934
:101E200020686425322688423CD1FEF79FFD00EBF6
:101E3000C00101EB001061688900B0FBF1F7FEF70B
:101E400095FD00EBC00101EB00106168B046890010
:101E5000B0FBF1F0B0FBF5F06FF01801484307EB71
:101E6000800106EB0110B0FBF5F000F0F006FEF784
:101E70007DFD00EBC00101EB001061688900B0FB43
:101E8000F1F0B0FBF5F006EB0016FEF76FFD00EB8E
:101E9000C00101EB001061688900B0FBF1F7FEF7AB
:101EA00065FD3BE0FEF752FD00EBC00101EB0010C9
:101EB00061688900B0FBF1F7FEF748FD00EBC00157
:101EC00001EB00106168B0468900B0FBF1F0B0FB97
:101ED000F5F06FF01801484307EB800106EB0110A5
:101EE000B0FBF5F000F0F006FEF730FD00EBC001AE
:101EF00001EB001061688900B0FBF1F0B0FBF5F078
:101F000006EB0016FEF722FD00EBC00101EB00100E
:101F100061688900B0FBF1F7FEF718FD00EBC00126
:101F200001EB001061688900B0FBF1F0B0FBF5F047
:101F30006FF01801484307EB800108EB0110B0FB7C
:101F4000F5F0216800F00F0030448860BDE8F081B2
:101F5000003801402DE9F041984617460E460446E8
:101F6000069D1DE0681C1BD02DB1FEF78DFBA0EB7C
:101F70000800A84214D92068C16821F4D071C1605A
:101F80002068416921F001014161202084F8390075
:101F900084F83A00002084F838000320BDE8F0817E
:101FA0002068006836EA000004D00020B842D9D08A
:101FB0000020F3E70120F9E7FEE7FEE70FB4054B49
:101FC00010B503A9044A029800F018F810BC5DF897
:101FD00014FB0000B52100083800002002E008C80A
:101FE000121F08C1002AFAD170477047002001E093
:101FF00001C1121F002AFBD1704700002DE9FF4FDD
:102000008BB09A460F460546002606E025280BD0E1
:1020100052460D9990476D1C761C28780028F5D102
:102020000FB03046BDE8F08F0024A0460122604981
:1020300000E0044315F8013F203B02FA03F0084298
:10204000F7D128782E2817D115F8010F44F0040491
:102050002A280ED06FF02F022878A0F1300109292C
:102060000AD808EB880102EB410100EB01086D1C66
:10207000F2E757F8048B6D1C287869283ED006DCFF
:102080000028CDD063280BD0642804D136E0732813
:1020900010D075284BD052460D999047761C85E09C
:1020A00017F8040B8DF8000000208DF80100E946B8
:1020B000012003E057F8049B4FF0FF3061074FF019
:1020C000000401D40AE0641C44450DDA8442FADBC2
:1020D00019F804100029F6D106E0641C8442FCDBE8
:1020E00019F804100029F8D1264404E019F8010B6E
:1020F00052460D999047641EF8D257E001CF4FF039
:102100000A0B002802DA40422D2102E0210504D505
:102110002B218DF82410012103E0E10705D02021B7
:10212000F7E70DF1200908910CE00021F9E701CF54
:102130004FF00A0BF9E75946FEF728F801F1300293
:1021400009F8012D0028F6D1ADEB090000F1200BB4
:10215000600701D44FF00108D84502DDA8EB0B0061
:1021600000E000208046002406E009A85246005DF9
:102170000D999047641C761C08988442F5DB04E0B6
:10218000302052460D999047761CB8F10001A8F115
:102190000108F5DC05E019F8010B52460D9990474E
:1021A000761CBBF10001ABF1010BF4DC6D1C34E7D4
:1021B0000928010013B54FF6FF7301226946024852
:1021C000FEF736FF00981CBDB400002010B50028B3
:1021D00021D0114B0022001F196803E0814203D86F
:1021E0000A4649680029F9D152B11368841A9C4201
:1021F00004D1006818441060104602E0506000E00E
:10220000186039B102680B1A934203D10B681A4463
:1022100002604968416010BD3C0000202DE9FE438A
:10222000FEF740FAFFF786FDFEF760FFFEF7B6FF08
:10223000FEF786FFFEF756F810B183A0FFF7BEFE4B
:10224000FDF7DBFF4FF4FA70FEF70EF94FF49450F0
:10225000044600F083F95FEA00094FF0FF357DD0B6
:10226000204600F07BF9070079D07DA0FFF7A6FE9D
:10227000FF264FF487744FF4947523462A46802135
:1022800048460096FFF73AFC23462A468021384606
:102290000096FFF733FC4846FFF77AFCFF20FEF775
:1022A000B5FF3846FFF774FCFF20FEF7AFFF75A0BF
:1022B000FFF784FE79497A48FDF7D6FF4FF4FA68B4
:1022C0004046FEF7D1F84846FFF762FCFF20FEF7D4
:1022D0009DFF01242346002250210A200094FFF78D
:1022E00027FA022300225A210A200094FFF720FA3D
:1022F0000323002264210A200094FFF719FA032324
:1023000000226E210A200094FFF712FA00250095A2
:10231000CDE901544622782311461420FFF718F91D
:102320000095CDE901544621782314220846FFF791
:102330000FF90095CDE90154462278231146142067
:10234000FFF768FACDE90054782382224621502015
:102350000294FFF75FFA534B53A201E06CE06DE08B
:10236000CDE9005600210A20FFF78AFBCDE9006580
:10237000504B51A214218220FFF7B8FACDE9006535
:10238000484B504A32210A20FFF768F93846FFF7D8
:10239000FFFBFF20FEF73AFFCDE900540023142293
:1023A0005F21A020FEF7C6FF0094002314225F21C6
:1023B000D2200194FEF7BEFFCDE900545F237D22B9
:1023C000194655200294FFF7C3F8CDE9005469225D
:1023D00073234B2110460294FFF7BAF8CDE900565B
:1023E000394B3AA200218220FFF780FACDE900653F
:1023F000384B39A214210A20FFF742FBCDE90056E1
:10240000344B384A21210A20FFF728F936A0FFF77C
:10241000D5FD39464846FDF727FF4046FEF724F82C
:1024200035A0FFF7CBFDFDF7DFFF4846FFF7CEFEF7
:102430003846FFF7CBFEFEE735A000E03EA0FFF7F1
:10244000BDFD2846BDE8FE83652D50617065722094
:10245000696E6974206661696C65640D0A0000002C
:102460004E6577496D6167653A426C61636B496D92
:1024700061676520616E6420526564496D616765BE
:102480000D0A000073686F7720696D6167652066CB
:102490006F722061727261790D0A0000483800087D
:1024A000C8250008140000207761766573686172A2
:1024B000650000001C000020CEA2D1A9B5E7D7D34B
:1024C00000000000B168DE3A08000020C4E3BAC38F
:1024D000616263000000002068656C6C6F20776F9C
:1024E000726C640015CD5B074550445F446973709E
:1024F0006C61790D0A000000476F746F20536C65A2
:102500006570206D6F64652E2E2E0D0A0000000090
:102510004661696C656420746F206170706C79200D
:10252000666F7220626C61636B206D656D6F72798E
:102530002E2E2E0D0A0000004661696C6564207421
:102540006F206170706C7920666F722072656420F4
:102550006D656D6F72792E2E2E0D0A00F0B50B3061
:10256000154D20F007010024144A0FE003688B4248
:102570000BD38B4205D95E1A43184768C3E900673D
:1025800000E04368136002C004E0021D10680028E8
:10259000ECD12046002802D1286808B10020F0BD07
:1025A000064A07481060074A121A22F00702C0E9DB
:1025B000002401202860D7E7400000203C000020D4
:1025C000FC000020F8900020FFFFFFFFFFFFFFFF4F
:1025D000FFFFFFFFFFFFFFFFFFFFFFFFFFFFFFFF0B
:1025E000FFFFFFFFFFFFFFFFFFFFFFFFFFFFFFFFFB
:1025F000FFFFFFFFFFFFFFFFFFFFFFFFFFFFFFFFEB
:10260000FFFFFFFFFFFFFFFFFFFFFFFFFFFFFFFFDA
:10261000FFFFFFFFFFFFFFFFFFFFFFFFFFFFFFFFCA
:10262000FFFFFFFFFFFFFFFFFFFFFFFFFFFFFFFFBA
:10263000FFFFFFFFFFFFFFFFFFFFFFFFFFFFFFFFAA
:10264000FFFFFFFFFFFFFFFFFFFFFFFFFFFFFFFF9A
:10265000FFFFFFFFFFFFFFFFFFFFFFFFFFFFFFFF8A
:10266000FFFFFFFFFFFFFFFFFFFFFFFFFFFFFFFF7A
:10267000FFFFFFFFFFFFFFFFFFFFFFFFFFFFFFFF6A
:10268000FFFFFFFFFFFFFFFFFFFFFFFFFFFFFFFF5A
:10269000FFFFFFFFFFFFFFFFFFFFFFFFFFFFFFFF4A
:1026A000FFFFFFFFFFFFFFFFFFFFFFFFFFFFFFFF3A
:1026B000FFFFFFFFFFFFFFFFFFFFFFFFFFFFFFFF2A
:1026C000FFFFFFFFFFFFFFFFFFFFFFFFFFFFFFFF1A
:1026D000FFFFFFFFFFFFFFFFFFFFFFFFFFFFFFFF0A
:1026E000FFFFFFFFFFFFFFFFFFFFFFFFFFFFFFFFFA
:1026F000FFFFFFFFFFFFFFFFFFFFFFFFFFFFFFFFEA
:10270000FFFFFFFFFFFFFFFFFFFFFFFFFFFFFFFFD9
:10271000FFFFFFFFFFFFFFFFFFFFFFFFFFFFFFFFC9
:10272000FFFFFFFFFFFFFFFFFFFFFFFFFFFFFFFFB9
:10273000FFFFFFFFFFFFFFFFFFFFFFFFFFFFFFFFA9
:10274000FFFFFFFFFFFFFFFFFFFFFFFFFFFFFFFF99
:10275000FFFFFFFFFFFFFFFFFFFFFFFFFFFFFFFF89
:10276000FFFFFFFFFFFFFFFFFFFFFFFFFFFFFFFF79
:10277000FFFFFFFFFFFFFFFFFFFFFFFFFFFFF81F50
:10278000FFFFFFFFFFFFFFFFFFFFFFFFFFFFF81F40
:10279000FFFFFFFFFFFFFFFFFFFFFFFFFFFFF81F30
:1027A000FFFFFFFFFFFFFFFFFFFFFFFFFFFFF81F20
:1027B000FFFFFFFFFFFFFFFFFFFFFFFFFCFFF81F13
:1027C000FFFFFFFFFFFFFFFFFFFFFFFFF87FF81F87
:1027D000FFFFFFFFFFFFFFFFFFFFFFFFF03FF81FBF
:1027E000FFFFFFFFFFFFFFFFFFFFFFFFE01FF81FDF
:1027F000FFFFFFFFFFFFFFFFFFFFFFFFE01FF81FCF
:10280000FFFFFFFFFFFFFFFFFFFFFFFFE00FF81FCE
:10281000FFFFFFFFFFFFFFFFFFFFFFFFE007F81FC6
:10282000FFFFFFFFFFFFFFFFFFFFFFFFE003F81FBA
:10283000FFFFFFFFFFFFFFFFFFFFFFFFE003F81FAA
:10284000FFFFFFFFFFFFFFFFFFFFFFFFE001F81F9C
:10285000FFFFFFFFFFFFFFFFFFFFFFFFE000F81F8D
:10286000FFFFFFFFFFFFFFFFFFFFFFFFE000F81F7D
:10287000FFFFFFFFFFFFFFFFFFFFFFFFE000781FED
:10288000FFFFFFFFFFFFFFFFFFFFFFFFE000781FDD
:10289000FFFFFFFFFFFFFFFFFFFFFFFFE020381FED
:1028A000FFFFFFFFFFFFFFFFFFFFFFFFE020000034
:1028B000001FFFFFFFFFFFFFFFFFFFFFE0300000F3
:1028C000000FFFFFFFFFFFFFFFFFFFFFE0380000EB
:1028D000000FFFFFFFFFFFFFFFFFFFFFE0380000DB
:1028E0000007FFFFFFFFFFFFFFFFFFFFE03C0000CF
:1028F0000007FFFFFFFFFFFFFFFFFFFFE03C0000BF
:102900000007FFFFFFFFFFFFFFFFFFFFE03FF81F94
:10291000FE07FFFFFFFFFFFFFFFFFFFFE03FF81F86
:10292000FE07FFFFFFFFFFFFFFFFFFFFE03FF81F76
:10293000FE03FFFFFFFFFFFFFFFFFFFFE03FF81F6A
:10294000FE03FFFFFFFFFFFFFFFFFFFFE03FF81F5A
:10295000FE03FFFFFFFFFFFFFFFFFFFFE03FF81F4A
:10296000FE03FFFFFFFFFFFFFFFFFFFFE03FF81F3A
:10297000FE03FFFFFFFFFFFFFFFFFFFFE03FF81F2A
:10298000FE07FFFFFFFFFFFFFFFFFFFFE03FF81F16
:10299000FE3FFFFFFFFFFFFFFFFFFFFFE03FF81FCE
:1029A000FEFFFFFFFFFFFFFFFFFFFFFFE03FF81FFE
:1029B000FFFFFFFFFFFFFFFFFFFFFFFFE03FF81FED
:1029C000FFFFFFFFFFFFFFFFFFFFFFFFE03FF81FDD
:1029D000FFFFFFFFFFFFFFFFFFFFFFFFE03FF81FCD
:1029E000FFFFFFFFFFFFFFFFFFFFFFFFFFFFF81FDE
:1029F000FFFFFFFFFFFFFFFFFFFFFFFFFFFFF81FCE
:102A0000FFFFFFFFFFFFFFFFFFFFFFFFFFFFF81FBD
:102A1000FFFFFFFFFFFFFFFFFFFFFFFFFFFFF81FAD
:102A2000FFFFFFFFFFFFFFFFFFFFFFFFFFFFF81F9D
:102A3000FFFFFFFFFFFFFFFFFFFFFFFFFFFFFFFFA6
:102A4000FFFFFFFFFFFFFFFFFFFFFFFFFFFFFFFF96
:102A5000FFFFFFFFFFFFFFFFFFFFFFFFFFFFFFFF86
:102A6000FFFFFFFFFFFFFFFFFFFFFFFFFFFFFFFF76
:102A7000C3FFFFFFFFFFFFFFFFFFFFFFFFFFFFFFA2
:102A8000C07FFFFFFFFFFFFFFFFFFFFFFFFFFFFF15
:102A9000801FFFFFFFFFFFFFFFFFFFFFFFFFFFFFA5
:102AA000800FFFFFFFFFFFFFFFFFFFFFFFFFFFFFA5
:102AB0008007FFFFFFFFFFFFFFFFFFFFFF0000009A
:102AC0000007FFFFFFFFFFFFFFFFFFFFFF0000000A
:102AD0004007FFFFFFFFFFFFFFFFFFFFFF000000BA
:102AE0007C07FFFFFFFFFFFFFFFFFFFFFF0000006E
:102AF0007E07FFFFFFFFFFFFFFFFFFFFFF0000005C
:102B00007E07FFFFFFFFFFFFFFFFFFFFFF0000004B
:102B10007E07FFFFFFFFFFFFFFFFFFFFFF03C1E097
:102B20007E07FFFFFFFFFFFFFFFFFFFFFF03C1E087
:102B30007E07FFFFFFFFFFFFFFFFFFFFFF03C1E077
:102B40007E07FFFFFFFFFFFFFFFFFFFFFF03C1E067
:102B50007E07FFFFFFFFFFFFFFFFFFFFFF03C1E057
:102B60007E07FFFFFFFFFFFFFFFFFFFFFF03C1E047
:102B70007E07FFFFFFFFFFFFFFFFFFFFFF03C1E037
:102B80007E07FFFFFFFFFFFFFFFFFFFFFF03C1E027
:102B90007E07FFFFFFFFFFFFFFFFFFFFFF03C1E017
:102BA0007C07FFFFFFFFFFFFFFFFFFFF800000002C
:102BB0000007FFFFFFFFFFFFFFFFFFFF8000000098
:102BC0000007FFFFFFFFFFFFFFFFFFFF8000000088
:102BD0000007FFFFFFFFFFFFFFFFFFFF8000000078
:102BE000000FFFFFFFFFFFFFFFFFFFFF8000000060
:102BF000001FFFFFFFFFFFFFFFFFFFFF8000000040
:102C0000003FFFFFFFFFFFFFFFFFFFFFFE03C0E0EE
:102C10007FFFFFFFFFFFFFFFFFFFFFFFFF03C1E09D
:102C20007FFFFFFFFFFFFFFFFFFFFFFFFF03C1E08D
:102C30007FFFFFFFFFFFFFFFFFFFFFFFFF03C1E07D
:102C40007FFFFFFFFFFFFFFFFFFFFFFFFF03C1E06D
:102C50007FFFFFFFFFFFFFFFFFFFFFFFFF03C1E05D
:102C60007FFFFFFFFFFFFFFFFFFFFFFFFF03C1E04D
:102C70007FFFFFFFFFFFFFFFFFFFFFFFFF03C1E03D
:102C80007FFFFFFFFFFFFFFFFFFFFFFFFF03C1E02D
:102C90007FFFFFFFFFFFFFFFFFFFFFFFFF000000C1
:102CA0000FFFFFFFFFFFFFFFFFFFFFFFFF00000021
:102CB0000FFFFFFFFFFFFFFFFFFFFFFFFF00000011
:102CC0000FFFFFFFFFFFFFFFFFFFFFFFFF00000001
:102CD0000FFFFFFFFFFFFFFFFFFFFFFFFF000000F1
:102CE0000FFFFFFFFFFFFFFFFFFFFFFFFF000000E1
:102CF0000FFFFFFFFFFFFFFFFFFFFFFFFFFFFFFFD4
:102D0000FFFFFFFFFFFFFFFFFFFFFFFFFFFFFFFFD3
:102D1000FFFFFFFFFFFFFFFFFFFFFFFFFFFFFFFFC3
:102D2000FFFFFFFFFFFFFFFFFFFFFFFFFFFFFFFFB3
:102D3000FFFFFFFFFFFFFFFFFFFFFFFFFFFFFFFFA3
:102D4000FFFFFFFFFFFFFFFFFFFFFFFFFFFFFFFF93
:102D5000FFFFFFFFFFFFFFFFFFFFFFFFFFFFFFFF83
:102D6000FFFFFFFFFFFFFFFFFFFFFFFFFFFFFFFF73
:102D7000FFFFFFFFFFFFFFFFFFFFFFFFFF0007FF5A
:102D8000FFFFFFFFFFFFFFFFFFFFFFFFFF0007FF4A
:102D9000FFFFFFFFFFFFFFFFFFFFFFFFFF0007FF3A
:102DA000FFFFFFFFFFFFFFFFFFFFFFFFC10007FF68
:102DB000FFFFFFFFFFFFFFFFFFFFFFFFC10007C097
:102DC0000003FFFFFFFFFFFFFFFFFFFFC10007C082
:102DD0000003FFFFFFFFFFFFFFFFFFFFC107FFC073
:102DE0000003FFFFFFFFFFFFFFFFFFFFC10421C044
:102DF0000003FFFFFFFFFFFFFFFFFFFFC10421C034
:102E00000003FFFFFFFFFFFFFFFFFFFFC10421C023
:102E10000003FFFFFFFFFFFFFFFFFFFFC10421C112
:102E2000060FFFFFFFFFFFFFFFFFFFFFC10421C1F0
:102E3000060FFFFFFFFFFFFFFFFFFFFFC10421C1E0
:102E4000060FFFFFFFFFFFFFFFFFFFFFC10421C1D0
:102E5000060FFFFFFFFFFFFFFFFFFFFFC10421C1C0
:102E6000060FFFFFFFFFFFFFFFFFFFFFC10421C1B0
:102E7000060FFFFFFFFFFFFFFFFFFFFFC10421C1A0
:102E8000060FFFFFFFFFFFFFFFFFFFFFC107FFC1AF
:102E9000060FFFFFFFFFFFFFFFFFFFFFC00000C1A6
:102EA000060FFFFFFFFFFFFFFFFFFFFFC00000C196
:102EB000060FFFFFFFFFFFFFFFFFFFFFC00000C186
:102EC000060FFFFFFFFFFFFFFFFFFFFFC00000C176
:102ED000060FFFFFFFFFFFFFFFFFFFFFC00000C166
:102EE000060FFFFFFFFFFFFFFFFFFFFFC00000C156
:102EF000060FFFFFFFFFFFFFFFFFFFFFC107FFC13F
:102F0000060FFFFFFFFFFFFFFFFFFFFFC107FFC12E
:102F1000060FFFFFFFFFFFFFFFFFFFFFC10421C1FF
:102F2000060FFFFFFFFFFFFFFFFFFFFFC10421C1EF
:102F3000060FFFFFFFFFFFFFFFFFFFFFC10421C1DF
:102F4000060FFFFFFFFFFFFFFFFFFFFFC10421C1CF
:102F5000060FFFFFFFFFFFFFFFFFFFFFC10421C1BF
:102F6000060FFFFFFFFFFFFFFFFFFFFFC10421C1AF
:102F7000060FFFFFFFFFFFFFFFFFFFFFC10421C19F
:102F8000060FFFFFFFFFFFFFFFFFFFFFC10421C18F
:102F9000060FFFFFFFFFFFFFFFFFFFFFC10421C17F
:102FA000060FFFFFFFFFFFFFFFFFFFFFC10421C16F
:102FB000060FFFFFFFFFFFFFFFFFFFFFC107FFC17E
:102FC000060FFFFFFFFFFFFFFFFFFFFFC10007C16D
:102FD000FE0FFFFFFFFFFFFFFFFFFFFFC10007FF27
:102FE000FE0FFFFFFFFFFFFFFFFFFFFFC10007FF17
:102FF000FFFFFFFFFFFFFFFFFFFFFFFFFF0007FFD8
:10300000FFFFFFFFFFFFFFFFFFFFFFFFFF0007FFC7
:10301000FFFFFFFFFFFFFFFFFFFFFFFFFFFFFFFFC0
:10302000FFFFFFFFFFFFFFFFFFFFFFFFFFFFFFFFB0
:10303000FFFFFFFFFFFFFFFFFFFFFFFFFFFFFFFFA0
:10304000FFFFFFFFFFFFFFFFFFFFFFFFFFFFFFFF90
:10305000FF7FFFFFFFFFFFFFFFFFFFFFFFC1FFFF3E
:10306000FF3FFFFFFFFFFFFFFFFFFFFFFFC1FFFF6E
:10307000FE1FFFFFFFFFFFFFFFFFFFFFFFC007FF78
:10308000FC07FFFFFFFFFFFFFFFFFFFFFFC0003F49
:10309000F807FFFFFFFFFFFFFFFFFFFFFFC0000775
:1030A000E007FFFFFFFFFFFFFFFFFFFFFFC0000084
:1030B000C00FFFFFFFFFFFFFFFFFFFFFFFC000008C
:1030C000001FFFFFFFFFFFFFFFFFFFFFFFC000002C
:1030D000003FFFFFFFFFFFFFFFFFFFFF80C1FE007C
:1030E00000FFFFFFFFFFFFFFFFFFFFFF8001FE006C
:1030F00000FFFFFFFFFFFFFFFFFFFFFF80008000DB
:10310000007FFFFFFFFFFFFFFFFFFFFF80000000CA
:10311000003FFFFFFFFFFFFFFFFFFFFF80000000FA
:10312000C01FFFFFFFFFFFFFFFFFFFFFC000000FFB
:10313000E00FFFFFFFFFFFFFFFFFFFFFFF00007E2D
:103140000007FFFFFFFFFFFFFFFFFFFFFFF0007E15
:103150000403FFFFFFFFFFFFFFFFFFFFF80000FF7B
:103160000203FFFFFFFFFFFFFFFFFFFFF80040FF2D
:103170000207FFFFFFFFFFFFFFFFFFFFF800608078
:10318000011FFFFFFFFFFFFFFFFFFFFFF800608051
:1031900000BFFFFFFFFFFFFFFFFFFFFFF8006080A2
:1031A000007FFFFFFFFFFFFFFFFFFFFFFFF06080DB
:1031B000007FFFFFFFFFFFFFFFFFFFFF800060803A
:1031C000003FFFFFFFFFFFFFFFFFFFFF8000608367
:1031D000F1FFFFFFFFFFFFFFFFFFFFFF80006083A6
:1031E000FFFFFFFFFFFFFFFFFFFFFFFF8000608388
:1031F000FFFFFFFFFFFFFFFFFFFFFFFF800060807B
:1032000003FFFFFFFFFFFFFFFFFFFFFFFFF06080F7
:10321000007FFFFFFFFFFFFFFFFFFFFFF800608061
:10322000001FFFFFFFFFFFFFFFFFFFFFF8006080B1
:103230000007FFFFFFFFFFFFFFFFFFFFF8006080B9
:103240000007FFFFFFFFFFFFFFFFFFFFF80060FF2A
:10325000C007FFFFFFFFFFFFFFFFFFFFC80060FF8A
:10326000FC1FFFFFFFFFFFFFFFFFFFFFC7F07FFF18
:10327000FF1FFFFFFFFFFFFFFFFFFFFFC3E03FFF59
:10328000FFFFFFFFFFFFFFFFFFFFFFFF80E00000EA
:103290000003FFFFFFFFFFFFFFFFFFFF8060000055
:1032A0000003FFFFFFFFFFFFFFFFFFFF8020000085
:1032B0000003FFFFFFFFFFFFFFFFFFFF801800007D
:1032C0000003FFFFFFFFFFFFFFFFFFFFE00E000017
:1032D0000003FFFFFFFFFFFFFFFFFFFFF007001FDF
:1032E000FFFFFFFFFFFFFFFFFFFFFFFFF803C00F20
:1032F000FFFFFFFFFFFFFFFFFFFFFFFFFE01E007F4
:10330000FFFFFFFFFFFFFFFFFFFFFFFFFF03F007D0
:10331000FFFFFFFFFFFFFFFFFFFFFFFFFF0FF81F94
:10332000FFFFFFFFFFFFFFFFFFFFFFFFFF9FFE7F8E
:10333000FFFFFFFFFFFFFFFFFFFFFFFFFFFFFFFF9D
:10334000FFFFFFFFFFFFFFFFFFFFFFFFFFFFFFFF8D
:10335000FFFFFFFFFFFFFFFFFFFFFFFFFFFFFFFF7D
:10336000FFFFFFFFFFFFFFFFFFFFFFFFFFFFFFFF6D
:10337000FFFFFFFFFFFFFFFFFFFFFFFFFFFFFFFF5D
:10338000FFFFFFFFFFFFFFFFFFFFFFFFF000000059
:103390000000FFFFFFFFFFFFFFFFFFFFF000000047
:1033A0004000FFFFFFFFFFFFFFFFFFFFF0000001F6
:1033B000F000FFFFFFFFFFFFFFFFFFFFF000000730
:1033C000FC00FFFFFFFFFFFFFFFFFFFFF000001FFC
:1033D000FF00FFFFFFFFFFFFFFFFFFFFF000007F89
:1033E000FFD0FFFFFFFFFFFFFFFFFFFFF00001FF28
:1033F000FFF801FFFFFFFFFFFFFFFFFFF0000FFFE0
:103400009FFC01FFFFFFFFFFFFFFFFFFF0001FFE1C
:1034100003FE01FFFFFFFFFFFFFFFFFFF0001FF8AC
:1034200000FF01FFFFFFFFFFFFFFFFFFF0001FF89E
:10343000007F81FFFFFFFFFFFFFFFFFFF0001FFE88
:1034400000FFC1FFFFFFFFFFFFFFFFFFF0000FFFC7
:10345000800001FFFFFFFFFFFFFFFFFFF00003FF02
:10346000E00001FFFFFFFFFFFFFFFFFFF000007F15
:10347000FC0001FFFFFFFFFFFFFFFFFFF000001F49
:10348000FE0001FFFFFFFFFFFFFFFFFFF00000074F
:10349000FE0001FFFFFFFFFFFFFFFFFFF03FE00324
:1034A000FE0001FFFFFFFFFFFFFFFFFFF01FF00027
:1034B000FE0001FFFFFFFFFFFFFFFFFFF00FFE0019
:1034C0003E0001FFFFFFFFFFFFFFFFFFF007FF8050
:1034D000000001FFFFFFFFFFFFFFFFFFF003FFE022
:1034E000000001FFFFFFFFFFFFFFFFFFF001FFFCF8
:1034F000000001FFFFFFFFFFFFFFFFFFF0001FFFC6
:10350000000001FFFFFFFFFFFFFFFFFFF00007FFCD
:10351000C00001FFFFFFFFFFFFFFFFFFF00000FF04
:10352000F80001FFFFFFFFFFFFFFFFFFF000003F7C
:10353000FE0001FFFFFFFFFFFFFFFFFFF000000F96
:10354000FE0001FFFFFFFFFFFFFFFFFFF000003F56
:10355000FE0001FFFFFFFFFFFFFFFFFFF00000FF86
:10356000FE0001FFFFFFFFFFFFFFFFFFF00007FF6F
:10357000F80001FFFFFFFFFFFFFFFFFFF0001FFF4D
:10358000C00001FFFFFFFFFFFFFFFFFFF0001FFE76
:10359000000001FFFFFFFFFFFFFFFFFFF0001FF82C
:1035A000000001FFFFFFFFFFFFFFFFFFF0001FF81C
:1035B000000001FFFFFFFFFFFFFFFFFFF0001FFF05
:1035C000000001FFFFFFFFFFFFFFFFFFF00003FF11
:1035D000E00001FFFFFFFFFFFFFFFFFFF000007FA4
:1035E000FC0001FFFFFFFFFFFFFFFFFFF000001FD8
:1035F000FE0001FFFFFFFFFFFFFFFFFFF000003FA6
:10360000FE0001FFFFFFFFFFFFFFFFFFF00001FFD4
:10361000FE0001FFFFFFFFFFFFFFFFFFF0000FFFB6
:10362000FE0001FFFFFFFFFFFFFFFFFFF0001FFF96
:10363000F80001FFFFFFFFFFFFFFFFFFF0001FFF8C
:10364000C00001FFFFFFFFFFFFFFFFFFFFC01FFEE6
:10365000000001FFFFFFFFFFFFFFFFFFFFC01FF0A4
:10366000000001FFFFFFFFFFFFFFFFFFFFC01F8004
:10367000000001FFFFFFFFFFFFFFFFFFFFC01C0077
:10368000000001FFFFFFFFFFFFFFFFFFFFC0000083
:10369000000001FFFFFFFFFFFFFFFFFFFFC0000073
:1036A000000001FFFFFFFFFFFFFFFFFFFFC0000063
:1036B000000001FFFFFFFFFFFFFFFFFFFFFFFFFF16
:1036C000FFFFFFFFFFFFFFFFFFFFFFFFFFFFFFFF0A
:1036D000FFFFFFFFFFFFFFFFFFFFFFFFFFFFFFFFFA
:1036E000FFFFFFFFFFFFFFFFFFFFFFFFFFFFFFFFEA
:1036F000FFFFFFFFFFFFFFFFFFFFFFFFFFFFFFFFDA
:1039A000FFFF00000FFFFFFFFFFFFFFFFFFFFFFF15
:1039B000FFFF00000FFFFFFFFFFFFFFFFFFFFFFF05
:1039C000FFFF00000FFFFFFFFFFFFFFFFFFFFFFFF5
:1039D000FFFF00000FFFFFFFFFFFFFFFFFFFFFFFE5
:1039E000FFFF00000FFFFFFFFFFFFFFFFFFFFFFFD5
:1039F000FFFF00000FFFFFFFFFFFFFFFFFFFFFFFC5
:103A0000FFFF00000FFFFFFFFFFFFFFFFFFFFFFFB4
:103A1000FFFF00000FFFFFFFFFFFFFFFFFFFFFFFA4
:103A2000FFFF020C0FFFFFFFFFFFFFFFFFFFFFFF86
:103A3000FFFF031E0FFFFFFFFFFFFFFFFFFFFFFF63
:103A4000FFFF033F0FFFFFFFFFFFFFFFFFFFFFFF32
:103A5000FFFF03330FFFFFFFFFFFFFFFFFFFFFFF2E
:103A6000FFFF03F30FFFFFFFFFFFFFFFFFFFFFFF5E
:103A7000FFFF01E30FFFFFFFFFFFFFFFFFFFFFFF60
:103A8000FFFF00C20FFFFFFFFFFFFFFFFFFFFFFF72
:103A9000FFFF00000FFFFFFFFFFFFFFFFFFFFFFF24
:103AA000FFFF03020FFFFFFFFFFFFFFFFFFFFFFF0F
:103AB000FFFF03030FFFFFFFFFFFFFFFFFFFFFFFFE
:103AC000FFFF03030FFFFFFFFFFFFFFFFFFFFFFFEE
:103AD000FFFF03030FFFFFFFFFFFFFFFFFFFFFFFDE
:103AE000FFFF03870FFFFFFFFFFFFFFFFFFFFFFF4A
:103AF000FFFF01FE0FFFFFFFFFFFFFFFFFFFFFFFC5
:103B0000FFFF01FE0FFFFFFFFFFFFFFFFFFFFFFFB4
:103B1000FFFF00780FFFFFFFFFFFFFFFFFFFFFFF2B
:103B2000FFFF00000FFFFFFFFFFFFFFFFFFFFFFF93
:103B3000FFFF00000FFFFFFFFFFFFFFFFFFFFFFF83
:103B4000FFFF1BFF0FFFFFFFFFFFFFFFFFFFFFFF59
:103B5000FFFF1BFF0FFFFFFFFFFFFFFFFFFFFFFF49
:103B6000FFFF1BFF0FFFFFFFFFFFFFFFFFFFFFFF39
:103B7000FFFF00000FFFFFFFFFFFFFFFFFFFFFFF43
:103B8000FFFF00000FFFFFFFFFFFFFFFFFFFFFFF33
:103B9000FFFF00FF0FFFFFFFFFFFFFFFFFFFFFFF24
:103BA000FFFF01FF0FFFFFFFFFFFFFFFFFFFFFFF13
:103BB000FFFF03FF0FFFFFFFFFFFFFFFFFFFFFFF01
:103BC000FFFF03000FFFFFFFFFFFFFFFFFFFFFFFF0
:103BD000FFFF03000FFFFFFFFFFFFFFFFFFFFFFFE0
:103BE000FFFF01800FFFFFFFFFFFFFFFFFFFFFFF52
:103BF000FFFF03FF0FFFFFFFFFFFFFFFFFFFFFFFC1
:103C0000FFFF03FF0FFFFFFFFFFFFFFFFFFFFFFFB0
:103C1000FFFF03FF0FFFFFFFFFFFFFFFFFFFFFFFA0
:103C2000FFFF00000FFFFFFFFFFFFFFFFFFFFFFF92
:103C3000FFFF00780FFFFFFFFFFFFFFFFFFFFFFF0A
:103C4000FFFF01FE0FFFFFFFFFFFFFFFFFFFFFFF73
:103C5000FFFF03FE0FFFFFFFFFFFFFFFFFFFFFFF61
:103C6000FFFF03870FFFFFFFFFFFFFFFFFFFFFFFC8
:103C7000FFFF03030FFFFFFFFFFFFFFFFFFFFFFF3C
:103C8000FFFF03870FFFFFFFFFFFFFFFFFFFFFFFA8
:103C9000FFFF01FF0FFFFFFFFFFFFFFFFFFFFFFF22
:103CA000FFFF01FE0FFFFFFFFFFFFFFFFFFFFFFF13
:103CB000FFFF00780FFFFFFFFFFFFFFFFFFFFFFF8A
:103CC000FFFF00000FFFFFFFFFFFFFFFFFFFFFFFF2
:103CD000FFFF03000FFFFFFFFFFFFFFFFFFFFFFFDF
:103CE000FFFF03000FFFFFFFFFFFFFFFFFFFFFFFCF
:103CF000FFFF03800FFFFFFFFFFFFFFFFFFFFFFF3F
:103D0000FFFF03FF0FFFFFFFFFFFFFFFFFFFFFFFAF
:103D1000FFFF03FF0FFFFFFFFFFFFFFFFFFFFFFF9F
:103D2000FFFF03FF0FFFFFFFFFFFFFFFFFFFFFFF8F
:103D3000FFFF00000FFFFFFFFFFFFFFFFFFFFFFF81
:103D4000FFFF03030FFFFFFFFFFFFFFFFFFFFFFF6B
:103D5000FFFF03030FFFFFFFFFFFFFFFFFFFFFFF5B
:103D6000FFFF0FFF0FFFFFFFFFFFFFFFFFFFFFFF43
:103D7000FFFF0FFF0FFFFFFFFFFFFFFFFFFFFFFF33
:103D8000FFFF0FFE0FFFFFFFFFFFFFFFFFFFFFFF24
:103D9000FFFF03000FFFFFFFFFFFFFFFFFFFFFFF1E
:103DA000FFFF00000FFFFFFFFFFFFFFFFFFFFFFF11
:103DB000FFFF03020FFFFFFFFFFFFFFFFFFFFFFFFC
:103DC000FFFF03030FFFFFFFFFFFFFFFFFFFFFFFEB
:103DD000FFFF03030FFFFFFFFFFFFFFFFFFFFFFFDB
:103DE000FFFF03030FFFFFFFFFFFFFFFFFFFFFFFCB
:103DF000FFFF03870FFFFFFFFFFFFFFFFFFFFFFF37
:103E0000FFFF01FE0FFFFFFFFFFFFFFFFFFFFFFFB1
:103E1000FFFF01FE0FFFFFFFFFFFFFFFFFFFFFFFA1
:103E2000FFFF00780FFFFFFFFFFFFFFFFFFFFFFF18
:103E3000FFFF00000FFFFFFFFFFFFFFFFFFFFFFF80
:103E4000FFFF00700FFFFFFFFFFFFFFFFFFFFFFF00
:103E5000FFFF01F30FFFFFFFFFFFFFFFFFFFFFFF6C
:103E6000FFFF03F30FFFFFFFFFFFFFFFFFFFFFFF5A
:103E7000FFFF03330FFFFFFFFFFFFFFFFFFFFFFF0A
:103E8000FFFF03330FFFFFFFFFFFFFFFFFFFFFFFFA
:103E9000FFFF03B70FFFFFFFFFFFFFFFFFFFFFFF66
:103EA000FFFF01FE0FFFFFFFFFFFFFFFFFFFFFFF11
:103EB000FFFF01FE0FFFFFFFFFFFFFFFFFFFFFFF01
:103EC000FFFF00780FFFFFFFFFFFFFFFFFFFFFFF78
:103ED000FFFF00000FFFFFFFFFFFFFFFFFFFFFFFE0
:103EE000FFFF00000FFFFFFFFFFFFFFFFFFFFFFFD0
:103EF000FFFF3FFF0FFFFFFFFFFFFFFFFFFFFFFF82
:103F0000FFFF3FFF0FFFFFFFFFFFFFFFFFFFFFFF71
:103F1000FFFF3FFF0FFFFFFFFFFFFFFFFFFFFFFF61
:103F2000FFFF00000FFFFFFFFFFFFFFFFFFFFFFF8F
:103F3000FFFF00000FFFFFFFFFFFFFFFFFFFFFFF7F
:103F4000FFFF18030FFFFFFFFFFFFFFFFFFFFFFF54
:103F5000FFFF18C30FFFFFFFFFFFFFFFFFFFFFFF84
:103F6000FFFF18C30FFFFFFFFFFFFFFFFFFFFFFF74
:103F7000FFFF18C30FFFFFFFFFFFFFFFFFFFFFFF64
:103F8000FFFF18C30FFFFFFFFFFFFFFFFFFFFFFF54
:103F9000FFFF1FFF0FFFFFFFFFFFFFFFFFFFFFFF01
:103FA000FFFF1FFF0FFFFFFFFFFFFFFFFFFFFFFFF1
:103FB000FFFF1FFF0FFFFFFFFFFFFFFFFFFFFFFFE1
:103FC000FFFF00000FFFFFFFFFFFFFFFFFFFFFFFEF
:103FD000FFFF00000FFFFFFFFFFFFFFFFFFFFFFFDF
:103FE000FFFF00000FFFFFFFFFFFFFFFFFFFFFFFCF
:103FF000FFFF00000FFFFFFFFFFFFFFFFFFFFFFFBF
:10400000FFFF00000FFFFFFFFFFFFFFFFFFFFFFFAE
:10401000FFFF00700FFFFFFFFFFFFFFFFFFFFFFF2E
:10402000FFFF01F30FFFFFFFFFFFFFFFFFFFFFFF9A
:10403000FFFF03F30FFFFFFFFFFFFFFFFFFFFFFF88
:10404000FFFF03330FFFFFFFFFFFFFFFFFFFFFFF38
:10405000FFFF03330FFFFFFFFFFFFFFFFFFFFFFF28
:10406000FFFF03B70FFFFFFFFFFFFFFFFFFFFFFF94
:10407000FFFF01FE0FFFFFFFFFFFFFFFFFFFFFFF3F
:10408000FFFF01FE0FFFFFFFFFFFFFFFFFFFFFFF2F
:10409000FFFF00780FFFFFFFFFFFFFFFFFFFFFFFA6
:1040A000FFFF00000FFFFFFFFFFFFFFFFFFFFFFF0E
:1040B000FFFF03000FFFFFFFFFFFFFFFFFFFFFFFFB
:1040C000FFFF03000FFFFFFFFFFFFFFFFFFFFFFFEB
:1040D000FFFF03800FFFFFFFFFFFFFFFFFFFFFFF5B
:1040E000FFFF03FF0FFFFFFFFFFFFFFFFFFFFFFFCC
:1040F000FFFF03FF0FFFFFFFFFFFFFFFFFFFFFFFBC
:10410000FFFF03FF0FFFFFFFFFFFFFFFFFFFFFFFAB
:10411000FFFF00000FFFFFFFFFFFFFFFFFFFFFFF9D
:10412000FFFF00000FFFFFFFFFFFFFFFFFFFFFFF8D
:10413000FFFF00FF0FFFFFFFFFFFFFFFFFFFFFFF7E
:10414000FFFF01FF0FFFFFFFFFFFFFFFFFFFFFFF6D
:10415000FFFF03FF0FFFFFFFFFFFFFFFFFFFFFFF5B
:10416000FFFF03330FFFFFFFFFFFFFFFFFFFFFFF17
:10417000FFFF03330FFFFFFFFFFFFFFFFFFFFFFF07
:10418000FFFF039F0FFFFFFFFFFFFFFFFFFFFFFF8B
:10419000FFFF019F0FFFFFFFFFFFFFFFFFFFFFFF7D
:1041A000FFFF000E0FFFFFFFFFFFFFFFFFFFFFFFFF
:1041B000FFFF00000FFFFFFFFFFFFFFFFFFFFFFFFD
:1041C000FFFF00000FFFFFFFFFFFFFFFFFFFFFFFED
:1041D000FFFF00FF0FFFFFFFFFFFFFFFFFFFFFFFDE
:1041E000FFFF01FF0FFFFFFFFFFFFFFFFFFFFFFFCD
:1041F000FFFF03FF0FFFFFFFFFFFFFFFFFFFFFFFBB
:10420000FFFF03000FFFFFFFFFFFFFFFFFFFFFFFA9
:10421000FFFF03000FFFFFFFFFFFFFFFFFFFFFFF99
:10422000FFFF03800FFFFFFFFFFFFFFFFFFFFFFF09
:10423000FFFF3FFF0FFFFFFFFFFFFFFFFFFFFFFF3E
:10424000FFFF3FFF0FFFFFFFFFFFFFFFFFFFFFFF2E
:10425000FFFF3FFF0FFFFFFFFFFFFFFFFFFFFFFF1E
:10426000FFFF00000FFFFFFFFFFFFFFFFFFFFFFF4C
:10427000FFFF020C0FFFFFFFFFFFFFFFFFFFFFFF2E
:10428000FFFF031E0FFFFFFFFFFFFFFFFFFFFFFF0B
:10429000FFFF033F0FFFFFFFFFFFFFFFFFFFFFFFDA
:1042A000FFFF03330FFFFFFFFFFFFFFFFFFFFFFFD6
:1042B000FFFF03F30FFFFFFFFFFFFFFFFFFFFFFF06
:1042C000FFFF01E30FFFFFFFFFFFFFFFFFFFFFFF08
:1042D000FFFF00C20FFFFFFFFFFFFFFFFFFFFFFF1A
:1042E000FFFF00000FFFFFFFFFFFFFFFFFFFFFFFCC
:1042F000FFFF00700FFFFFFFFFFFFFFFFFFFFFFF4C
:10430000FFFF01F30FFFFFFFFFFFFFFFFFFFFFFFB7
:10431000FFFF03F30FFFFFFFFFFFFFFFFFFFFFFFA5
:10432000FFFF03330FFFFFFFFFFFFFFFFFFFFFFF55
:10433000FFFF03330FFFFFFFFFFFFFFFFFFFFFFF45
:10434000FFFF03B70FFFFFFFFFFFFFFFFFFFFFFFB1
:10435000FFFF01FE0FFFFFFFFFFFFFFFFFFFFFFF5C
:10436000FFFF01FE0FFFFFFFFFFFFFFFFFFFFFFF4C
:10437000FFFF00780FFFFFFFFFFFFFFFFFFFFFFFC3
:10438000FFFF02000FFFFFFFFFFFFFFFFFFFFFFF29
:10439000FFFF03C00FFFFFFFFFFFFFFFFFFFFFFF58
:1043A000FFFF03F80FFFFFFFFFFFFFFFFFFFFFFF10
:1043B000FFFF01FF0FFFFFFFFFFFFFFFFFFFFFFFFB
:1043C000FFFF003F0FFFFFFFFFFFFFFFFFFFFFFFAC
:1043D000FFFF003F0FFFFFFFFFFFFFFFFFFFFFFF9C
:1043E000FFFF01FF0FFFFFFFFFFFFFFFFFFFFFFFCB
:1043F000FFFF03F80FFFFFFFFFFFFFFFFFFFFFFFC0
:10440000FFFF03C00FFFFFFFFFFFFFFFFFFFFFFFE7
:10441000FFFF02000FFFFFFFFFFFFFFFFFFFFFFF98
:10442000FFFF00000FFFFFFFFFFFFFFFFFFFFFFF8A
:10443000FFFF00FF0FFFFFFFFFFFFFFFFFFFFFFF7B
:10444000FFFF01FF0FFFFFFFFFFFFFFFFFFFFFFF6A
:10445000FFFF03FF0FFFFFFFFFFFFFFFFFFFFFFF58
:10446000FFFF03330FFFFFFFFFFFFFFFFFFFFFFF14
:10447000FFFF03330FFFFFFFFFFFFFFFFFFFFFFF04
:10448000FFFF039F0FFFFFFFFFFFFFFFFFFFFFFF88
:10449000FFFF019F0FFFFFFFFFFFFFFFFFFFFFFF7A
:1044A000FFFF000E0FFFFFFFFFFFFFFFFFFFFFFFFC
:1044B000FFFF00000FFFFFFFFFFFFFFFFFFFFFFFFA
:1044C000FFFF18000FFFFFFFFFFFFFFFFFFFFFFFD2
:1044D000FFFF1F800FFFFFFFFFFFFFFFFFFFFFFF3B
:1044E000FFFF1FF80FFFFFFFFFFFFFFFFFFFFFFFB3
:1044F000FFFF07FF0FFFFFFFFFFFFFFFFFFFFFFFB4
:10450000FFFF003F0FFFFFFFFFFFFFFFFFFFFFFF6A
:10451000FFFF00FF0FFFFFFFFFFFFFFFFFFFFFFF9A
:10452000FFFF07FE0FFFFFFFFFFFFFFFFFFFFFFF84
:10453000FFFF1FE00FFFFFFFFFFFFFFFFFFFFFFF7A
:10454000FFFF1FC00FFFFFFFFFFFFFFFFFFFFFFF8A
:10455000FFFF0FFC0FFFFFFFFFFFFFFFFFFFFFFF4E
:10456000FFFF00FF0FFFFFFFFFFFFFFFFFFFFFFF4A
:10457000FFFF003F0FFFFFFFFFFFFFFFFFFFFFFFFA
:10458000FFFF07FF0FFFFFFFFFFFFFFFFFFFFFFF23
:10459000FFFF1FFC0FFFFFFFFFFFFFFFFFFFFFFFFE
:1045A000FFFF1F800FFFFFFFFFFFFFFFFFFFFFFF6A
:1045B000FFFF18000FFFFFFFFFFFFFFFFFFFFFFFE1
:1045C000FFFF00000FFFFFFFFFFFFFFFFFFFFFFFE9
:1045D000FFFF00000FFFFFFFFFFFFFFFFFFFFFFFD9
:1045E000FFFF00000FFFFFFFFFFFFFFFFFFFFFFFC9
:1045F000FFFF00000FFFFFFFFFFFFFFFFFFFFFFFB9
:10460000FFFF00000FFFFFFFFFFFFFFFFFFFFFFFA8
:10461000FFFFFC000FFFFFFFFFFFFFFFFFFFFFFF9C
:10462000FFFFFC000FFFFFFFFFFFFFFFFFFFFFFF8C
:10463000FFFFFC000FFFFFFFFFFFFFFFFFFFFFFF7C
:10464000FFFFFC000FFFFFFFFFFFFFFFFFFFFFFF6C
:10465000FFFFFC000FFFFFFFFFFFFFFFFFFFFFFF5C
:10466000FFFFFC000FFFFFFFFFFFFFFFFFFFFFFF4C
:10467000FFFFFC000FFFFFFFFFFFFFFFFFFFFFFF3C
:10468000FFFFFFFFFFFFFFFFFFFFFFFFFFFFFFFF3A
:10469000FFFFFFFFFFFFFFFFFFFFFFFFFFFFFFFF2A
:1046A000FFFFFFFFFFFFFFFFFFFFFFFFFFFFFFFF1A
:1046B000FFFFFFFFFFFFFFFFFFFFFFFFFFFFFFFF0A
:1048C000FFFFFFFFFFFFFFFFFFFFFFF80FFFFFFFEF
:1048D000FFFFFFFFFFFFFFFFFFFFFFF80FFFFFFFDF
:1048E000FFFFFFFFFFFFFFFFFFFFFFF80FFFFFFFCF
:1048F000FFFFFFFFFFFFFFFFFFFFFFF80FFFFFFFBF
:10490000FFFFFFFFFFFFFFFFFFFFFFF80FFFFFFFAE
:10491000FFFFFFFFFFFFFFFFFFFFFFF80FFFFFFF9E
:10492000FFFFFFFFFFFFFFFFFFFFFFF8001FFFFF7D
:10493000FFFFFFFFFFFFFFFFFFFFFFF8001FFFFF6D
:10494000FFFFFFFFFFFFFFFFFFFFFFF8001FFFFF5D
:10495000FFFFFFFFFFFFFFFFFFFFFFF8001FFFFF4D
:10496000FFFFFFFFFFFFFFFFFFFFFFF8001FFFFF3D
:10497000FFFFFFFFFFFFFFFFFFFFFFF8001FFFFF2D
:10498000FFFFFFFFFFFFFFFFFFFFFFF8001FFFFF1D
:10499000FFFFFFFFFFFFFFFFFFFFFFFFFFFFFFFF27
:1049A000FFFFFFFFFFFFFFFFFFFFFFFFFFFFFFFF17
:1049B000FFFFFFFFFFFFFFFFFFFFFFFFFFFFFFFF07
:1049C000FFFFFFFFFFFFFFFFFFFFFFFFFFFFFFFFF7
:1049D000FFFFFFFFFFFFFFFFFFFFFFFFFFFFFFFFE7
:1049E000FFFFFFFFFFFFFFFFFFFFFFFFFFFFFFFFD7
:1049F000FFFFFFFFFFFFFFFFFFFFFFFFFFFFFFFFC7
:104A0000FFFFFFFFFFFFFFFFFFFFFFFFFFFFFFFFB6
:104A1000FFFFFFFFFFFFFFFFFFFFFFFFFFFFFFFFA6
:104A2000FFFFFFFFFFFFFFFFFFFFFFFFFFFFFFFF96
:104A3000FFFFFFFFFFFFFFFFFFFFFFFFFFFFFFFF86
:104A4000FFFFFFFFFFFFFFFFFFFFFFFFFFFFFFFF76
:104A5000FFFFFFFFFFFFFFFFFFFFFFFFFFFFFFFF66
:104A6000FFFFFFFFFFFFFFFFFFFFFFFFFFFFFFFF56
:104A7000FFFFFFFFFFFFFFFFFFFFFFFFFFFFFFFF46
:104A8000FFFFFFFFFFFFFFFFFFFFFFFFFFFFFFFF36
:104A9000FFFFFFFFFFFFFFFFFFFFFFFFFFFFFFFF26
:104AA000FFFFFFFFFFFFFFFFFFFFFFFFFFFFFFFF16
:104AB000FFFFFFFFFFFFFFFFFFFFFFFFFFFFFFFF06
:104AC000FFFFFFFFFFFFFFFF0000000000000000EE
:104AD0000000000000101010101000001000000076
:104AE000006C48480000000000000000001414287A
:104AF0007C287C2850500000001038404038487016
:104B000010100000002050200C7008140800000055
:104B1000000000182020544834000000001010103D
:104B20001000000000000000000808101010101015
:104B30001008080000202010101010101020200075
:104B400000107C1028280000000000000000101059
:104B500010FE1010100000000000000000000018FF
:104B60001030200000000000007C00000000000069
:104B700000000000000000303000000000040408C5
:104B800008101020204000000038444444444444AD
:104B90003800000000301010101010107C000000D1
:104BA00000384404081020447C000000003844040D
:104BB0001804044438000000000C141424447E043B
:104BC0000E000000003C202038040444380000009F
:104BD000001C20407844444438000000007C440419
:104BE00008080810100000000038444438444444C9
:104BF0003800000000384444443C040870000000C1
:104C000000000030300000303000000000000018CC
:104C1000180000183020000000000C1060806010A8
:104C20000C000000000000007C007C000000000080
:104C30000000C02018041820C00000000000182444
:104C400004081000300000003844444C54544C40D8
:104C5000443800000030102828287C44EE00000072
:104C600000F8444478444444F8000000003C4440C8
:104C7000404040443800000000F048444444444868
:104C8000F000000000FC445070504044FC00000064
:104C9000007E22283828202070000000003C44407C
:104CA000404E44443800000000EE44447C444444F8
:104CB000EE000000007C1010101010107C000000AE
:104CC000003C0808084848483000000000EE44480E
:104CD00050704844E600000000702020202024246A
:104CE0007C00000000EE6C6C54544444EE00000064
:104CF00000EE64645454544CEC000000003844440A
:104D000044444444380000000078242424382020FF
:104D1000700000000038444444444444381C0000FF
:104D200000F8444444784844E200000000344C4019
:104D3000380404645800000000FE92101010101097
:104D40003800000000EE444444444444380000006D
:104D500000EE4444282828101000000000EE4444CF
:104D6000545454542800000000C64428101028440D
:104D7000C600000000EE4428281010103800000083
:104D8000007C4408101020447C00000000382020E3
:104D90002020202020203800004020202010100853
:104DA0000808000000380808080808080808380043
:104DB0000010102844000000000000000000000067
:104DC00000000000000000FE0010080000000000CD
:104DD0000000000000000038443C44443E00000055
:104DE00000C0405864444444F80000000000003C07
:104DF0004440404438000000000C04344C44444417
:104E00003E00000000000038447C40403C000000B0
:104E1000001C207C202020207C00000000000036A8
:104E20004C4444443C04380000C04058644444446A
:104E3000EE00000000100070101010107C00000048
:104E400000100078080808080808700000C0405CDE
:104E500048705048DC000000003010101010101096
:104E60007C000000000000E854545454FE00000090
:104E7000000000D864444444EE0000000000003804
:104E80004444444438000000000000D864444444D2
:104E90007840E000000000364C4444443C040E00DE
:104EA0000000006C302020207C0000000000003C4E
:104EB00044380444780000000000207C2020202298
:104EC0001C000000000000CC4444444C36000000AC
:104ED000000000EE4444282810000000000000EE0E
:104EE0004454545428000000000000CC483030489E
:104EF000CC000000000000EE4424281810107800B8
:104F00000000007C481020447C00000000081010C5
:104F100010102010101008000010101010101010A9
:104F200010100000002010101010081010102000A9
:104F3000000000000024580000000000C4E300004E
:104F40000000000000001DC01D803BFF3B073F77B5
:104F50007E76F870FBFEFBFE3F773F773E7338703E
:104F600038703BE00000000000000000000000007E
:104F70000000000000000000000000000000000031
:104F80000000000000000000000000000000000021
:104F90000000000000000000000000000000000011
:104FA0000000000000000000000000000000000001
:104FB00000000000000000000000000000000000F1
:104FC00000000000000000000000000000000000E1
:104FD00000000000000000000000000000000000D1
:104FE0000000BAC30000000000000000300073FFA2
:104FF000700FFE1E7E3C6E38EE30EFFFFC307C30D2
:1050000038303E307E30E030C1F00000000000005B
:105010000000000000000000000000000000000090
:105020000000000000000000000000000000000080
:105030000000000000000000000000000000000070
:105040000000000000000000000000000000000060
:105050000000000000000000000000000000000050
:105060000000000000000000000000000000000040
:105070000000000000000000000000000000000030
:105080000000000000000000CAF70000000000005F
:105090000000300E300E3FEE30EEFCFF76CE77FE95
:1050A0007BFEFFFEF3DEF3CE37EE3E6E3C0E303E6F
:1050B00000000000000000000000000000000000F0
:1050C00000000000000000000000000000000000E0
:1050D00000000000000000000000000000000000D0
:1050E00000000000000000000000000000000000C0
:1050F00000000000000000000000000000000000B0
:10510000000000000000000000000000000000009F
:10511000000000000000000000000000000000008F
:105120000000000000000000000000000000DDAEF4
:1051300000000000000000000670FFFF3E70380015
:105140007FFFE000FFFC3B8C39CCFFFF739C71DCE0
:105150007FFF001C01F800000000000000000000BC
:10516000000000000000000000000000000000003F
:10517000000000000000000000000000000000002F
:10518000000000000000000000000000000000001F
:10519000000000000000000000000000000000000F
:1051A00000000000000000000000000000000000FF
:1051B00000000000000000000000000000000000EF
:1051C00000000000000000000000000000000000DF
:1051D00000000000C5C90000000000000000E01F42
:1051E000FFF03E000E1FCFFBFFF83FFF0FFF7FD801
:1051F0007FDC6FCEEDFFFDF7F9C00000000000007E
:10520000000000000000000000000000000000009E
:10521000000000000000000000000000000000008E
:10522000000000000000000000000000000000007E
:10523000000000000000000000000000000000006E
:10524000000000000000000000000000000000005E
:10525000000000000000000000000000000000004E
:10526000000000000000000000000000000000003E
:1052700000000000000000000000610000000000CD
:105280000000000000000000000000003E00670079
:1052900007800F807F80E380E780E7807F800000C9
:1052A00000000000000000000000000000000000FE
:1052B00000000000000000000000000000000000EE
:1052C00000000000000000000000000000000000DE
:1052D00000000000000000000000000000000000CE
:1052E00000000000000000000000000000000000BE
:1052F00000000000000000000000000000000000AE
:10530000000000000000000000000000000000009D
:10531000000000000000000000000000000000008D
:1053200062000000000000000000700070007000CB
:1053300070007F007B8071C071C071C071C071C08E
:105340007B807F00000000000000000000000000E3
:10535000000000000000000000000000000000004D
:10536000000000000000000000000000000000003D
:10537000000000000000000000000000000000002D
:10538000000000000000000000000000000000001D
:10539000000000000000000000000000000000000D
:1053A00000000000000000000000000000000000FD
:1053B00000000000000000000000000000000000ED
:1053C000000000000000630000000000000000007A
:1053D00000000000000000003F007300F000E0004B
:1053E000E000E000F00073003F000000000000005B
:1053F00000000000000000000000000000000000AD
:10540000000000000000000000000000000000009C
:10541000000000000000000000000000000000008C
:10542000000000000000000000000000000000007C
:10543000000000000000000000000000000000006C
:10544000000000000000000000000000000000005C
:10545000000000000000000000000000000000004C
:1054600000000000000000000000000041000000FB
:1054700000000000000000000E001F001F001F00C1
:105480003B803B8071807FC071C0E0E0E0E0E0E005
:10549000000000000000000000000000000000000C
:1054A00000000000000000000000000000000000FC
:1054B00000000000000000000000000000000000EC
:1054C00000000000000000000000000000000000DC
:1054D00000000000000000000000000000000000CC
:1054E00000000000000000000000000000000000BC
:1054F00000000000000000000000000000000000AC
:10550000000000000000000000000000000000009B
:10551000000000000000000000000000000000008B
:10552000000000000000000000000000000000007B
:10553000000000000C000C000C000C000C000C0023
:105540000C000C0000000C00000000000000000037
:105550000000000000001DC01DC0088008800880F9
:10556000000000000000000000000000000000003B
:10557000000000000D800D800D800D803FC01B00DD
:105580003FC01B001B001B001B00000000000000B0
:10559000000004001F803180318038001E000F00A1
:1055A0000380318031803F000400040000000000CF
:1055B0000000000018002400240018C007801E000E
:1055C0003180024002400180000000000000000025
:1055D0000000000000000F001800180018000C0068
:1055E0001D80370033001D80000000000000000017
:1055F0000000000000000700070002000200020097
:10560000000000000000000000000000000000009A
:10561000000000000300030006000E000C000C0058
:105620000C000C000E000600030003000000000048
:1056300000000000180018000C000600060006001C
:105640000600060006000C001C0018000000000008
:1056500000000000060006003FC03FC00F001F8092
:1056600019800000000000000000000000000000A1
:1056700000000000000000000400040004003F805F
:10568000040004000400000000000000000000000E
:10569000000000000000000000000000000000000A
:1056A00000000000060004000C00080008000000D4
:1056B00000000000000000000000000000003F802B
:1056C00000000000000000000000000000000000DA
:1056D00000000000000000000000000000000000CA
:1056E000000000000C000C000000000000000000A2
:1056F000000000C000C0018001800300030006001C
:105700000C000C00180018003000300000000000F1
:10571000000000000E001B0031803180318031809C
:10572000318031801B000E000000000000000000EE
:105730000000000006003E0006000600060006000D
:105740000600060006003FC0000000000000000048
:10575000000000000F001980318031800300060036
:105760000C00180030003F80000000000000000026
:10577000000000003F006180018003001F000380E3
:105780000180018061803F000000000000000000F7
:1057900000000000070007000F000B001B001300B3
:1057A00033003F8003000F80000000000000000075
:1057B000000000001F801800180018001F00118052
:1057C0000180018021801F00000000000000000017
:1057D0000000000007801C001800300037003980EE
:1057E0003180318019800F000000000000000000AF
:1057F000000000007F0043000300060006000600D2
:1058000006000C000C000C0000000000000000006E
:10581000000000001F003180318031801F00318086
:105820003180318031801F00000000000000000046
:10583000000000001E0033003180318033801D8065
:105840000180030007003C00000000000000000091
:10585000000000000000000000000C000C00000030
:10586000000000000C000C00000000000000000020
:105870000000000000000000000003000300000022
:1058800000000000060004000800080000000000FE
:1058900000000000000000C00300040018006000C9
:1058A00018000400030000C0000000000000000019
:1058B0000000000000000000000000007FC00000A9
:1058C0007FC0000000000000000000000000000099
:1058D000000000000000600018000400030000C089
:1058E0000300040018006000000000000000000039
:1058F0000000000000001F0031803180018007009F
:105900000C000C0000000C00000000000000000073
:10591000000000000E0011002100210027002900D6
:1059200029002700200011000E00000000000000E8
:105930000000000000003F000F00090019801980DE
:105940001F8030C030C079E000000000000000007F
:105950000000000000007F003180318031803F0076
:105960003180318031807F000000000000000000A5
:105970000000000000001F4030C060406000600078
:105980006000604030801F00000000000000000048
:105990000000000000007F00318030C030C030C007
:1059A00030C030C031807F000000000000000000E7
:1059B0000000000000007F803080308032003E0018
:1059C0003200308030807F80000000000000000046
:1059D0000000000000007FC03040304032003E0038
:1059E0003200300030007C000000000000000000A9
:1059F0000000000000001E803180608060006000B8
:105A000067C0618031801F000000000000000000BE
:105A10000000000000007BC03180318031803F8079
:105A20003180318031807BC0000000000000000028
:105A30000000000000003FC006000600060006004F
:105A40000600060006003FC0000000000000000045
:105A50000000000000001FC003000300030003005B
:105A60006300630063003E000000000000000000CF
:105A70000000000000007BC03180330036003C0095
:105A80003E003300318079C00000000000000000BB
:105A90000000000000007E00180018001800180028
:105AA0001840184018407FC00000000000000000AF
:105AB000000000000000E0E060C071C07BC06AC070
:105AC0006EC064C060C0FBE0000000000000000089
:105AD00000000000000073C0318039803D803580B7
:105AE00037803380318079800000000000000000A2
:105AF0000000000000001F00318060C060C060C076
:105B000060C060C031801F00000000000000000085
:105B10000000000000007F00318031803180318042
:105B20003F00300030007E00000000000000000058
:105B30000000000000001F00318060C060C060C035
:105B400060C060C031801F000CC01F8000000000DA
:105B50000000000000007F003180318031803E0075
:105B60003300318031807CE0000000000000000044
:105B70000000000000001F803180318038001F00CD
:105B80000380318031803F000000000000000000F1
:105B90000000000000007F804C804C804C800C0096
:105BA0000C000C000C003F00000000000000000092
:105BB0000000000000007BC03180318031803180E6
:105BC0003180318031801F000000000000000000A3
:105BD0000000000000007BC0318031801B001B00F2
:105BE0001B000A000E000E00000000000000000074
:105BF000000000000000FBE060C064C06EC06EC02A
:105C00002A803B803B8031800000000000000000C3
:105C10000000000000007BC031801B000E000E0061
:105C20000E001B0031807BC000000000000000005F
:105C300000000000000079E030C019800F0006006D
:105C40000600060006001F800000000000000000A3
:105C50000000000000003F802180230006000400B7
:105C60000C00188030803F80000000000000000021
:105C7000000000000780060006000600060006007F
:105C8000060006000600060006000780000000006F
:105C9000000030003000180018000C000C00060056
:105CA000030003000180018000C000C0000000006C
:105CB000000000001E0006000600060006000600A8
:105CC000060006000600060006001E000000000098
:105CD000000004000A000A0011002080208000005B
:105CE00000000000000000000000000000000000B4
:105CF00000000000000000000000000000000000A4
:105D00000000000000000000000000000000000093
:105D1000FFE0080004000200000000000000000096
:105D20000000000000000000000000000000000073
:105D3000000000000000000000001F000180018042
:105D40001F80318033801DC0000000000000000073
:105D5000000000007000300030003700398030C093
:105D600030C030C039807700000000000000000023
:105D7000000000000000000000001E8031806080F4
:105D80006000608031801F00000000000000000003
:105D9000000000000380018001801D80338061804D
:105DA0006180618033801DC00000000000000000A1
:105DB000000000000000000000001F00318060C0F3
:105DC0007FC0600030C01F800000000000000000A5
:105DD0000000000007E00C000C003F800C000C00ED
:105DE0000C000C000C003F800000000000000000D0
:105DF000000000000000000000001DC03380618032
:105E00006180618033801D80018001801F0000005F
:105E10000000000070003000300037003980318011
:105E20003180318031807BC0000000000000000024
:105E3000000000000600060000001E00060006002C
:105E40000600060006003FC0000000000000000041
:105E5000000000000600060000003F0003000300F1
:105E60000300030003000300030003003E000000E2
:105E700000000000700030003000378036003C0029
:105E80003C003600330077C0000000000000000036
:105E9000000000001E0006000600060006000600C6
:105EA0000600060006003FC00000000000000000E1
:105EB000000000000000000000007F8036C036C0F7
:105EC00036C036C036C076E000000000000000009A
:105ED00000000000000000000000770039803180E1
:105EE0003180318031807BC0000000000000000064
:105EF000000000000000000000001F00318060C0B2
:105F000060C060C031801F00000000000000000081
:105F1000000000000000000000007700398030C061
:105F200030C030C039803700300030007C000000C5
:105F3000000000000000000000001DC033806180F0
:105F40006180618033801D800180018007C0000076
:105F5000000000000000000000007B801CC0180052
:105F60001800180018007F0000000000000000006A
:105F7000000000000000000000001F8031803C0095
